{
  "abi": [
    {
      "inputs": [
        {
          "internalType": "address",
          "name": "",
          "type": "address"
        }
      ],
      "name": "addressToAmountFunded",
      "outputs": [
        {
          "internalType": "uint256",
          "name": "",
          "type": "uint256"
        }
      ],
      "stateMutability": "view",
      "type": "function"
    },
    {
      "inputs": [
        {
          "internalType": "uint256",
          "name": "withdrawAmount",
          "type": "uint256"
        }
      ],
      "name": "cashoutLendor",
      "outputs": [],
      "stateMutability": "payable",
      "type": "function"
    },
    {
      "inputs": [],
      "name": "cashoutLessee",
      "outputs": [],
      "stateMutability": "payable",
      "type": "function"
    },
    {
      "inputs": [
        {
          "internalType": "address",
          "name": "either",
          "type": "address"
        }
      ],
      "name": "getBalance",
      "outputs": [
        {
          "internalType": "uint256",
          "name": "",
          "type": "uint256"
        }
      ],
      "stateMutability": "view",
      "type": "function"
    },
    {
      "inputs": [],
      "name": "getDaysInContract",
      "outputs": [
        {
          "internalType": "uint256",
          "name": "",
          "type": "uint256"
        }
      ],
      "stateMutability": "view",
      "type": "function"
    },
    {
      "inputs": [],
      "name": "getInitStateDate",
      "outputs": [
        {
          "internalType": "uint256",
          "name": "",
          "type": "uint256"
        }
      ],
      "stateMutability": "view",
      "type": "function"
    },
    {
      "inputs": [],
      "name": "lendorMargin",
      "outputs": [],
      "stateMutability": "payable",
      "type": "function"
    },
    {
      "inputs": [],
      "name": "leseeMarginRent",
      "outputs": [],
      "stateMutability": "payable",
      "type": "function"
    },
    {
      "inputs": [
        {
          "internalType": "uint256",
          "name": "_minimumMarginLendor",
          "type": "uint256"
        },
        {
          "internalType": "uint256",
          "name": "_minimumMarginLessee",
          "type": "uint256"
        },
        {
          "internalType": "uint256",
          "name": "_rentFee",
          "type": "uint256"
        },
        {
          "internalType": "uint256",
          "name": "_maxDaysContract",
          "type": "uint256"
        },
        {
          "internalType": "uint256",
          "name": "_harvestDay",
          "type": "uint256"
        },
        {
          "internalType": "uint256",
          "name": "_testingDays",
          "type": "uint256"
        }
      ],
      "name": "setAttributes",
      "outputs": [
        {
          "internalType": "address",
          "name": "",
          "type": "address"
        }
      ],
      "stateMutability": "nonpayable",
      "type": "function"
    },
    {
      "inputs": [],
      "name": "testingDays",
      "outputs": [
        {
          "internalType": "uint256",
          "name": "",
          "type": "uint256"
        }
      ],
      "stateMutability": "view",
      "type": "function"
    },
    {
      "inputs": [],
      "name": "viewCashoutLendor",
      "outputs": [
        {
          "internalType": "uint256",
          "name": "",
          "type": "uint256"
        }
      ],
      "stateMutability": "view",
      "type": "function"
    },
    {
      "inputs": [],
      "name": "viewMarginRemainsLessee",
      "outputs": [
        {
          "internalType": "uint256",
          "name": "",
          "type": "uint256"
        }
      ],
      "stateMutability": "view",
      "type": "function"
    },
    {
      "inputs": [],
      "name": "voidingLendor",
      "outputs": [],
      "stateMutability": "payable",
      "type": "function"
    },
    {
      "inputs": [],
      "name": "voidingLessee",
      "outputs": [],
      "stateMutability": "payable",
      "type": "function"
    }
  ],
  "bytecode": "60806040526003805463ffffffff1916905560006004819055661aa535d3d0c000600581905560065567010a741a46278000600755670125195019f840006008556078600955605a600a55600b5534801561005957600080fd5b50610e0a806100696000396000f3fe6080604052600436106100dd5760003560e01c8063716e55951161007f578063a0ed6d8d11610059578063a0ed6d8d14610216578063b2996dbb1461021e578063e225f26514610226578063f8b2cb4f1461023b576100dd565b8063716e5595146101dc5780637d26efe6146101e4578063877f571814610201576100dd565b80633e47d6f3116100bb5780633e47d6f314610177578063478c9dc9146101aa5780634e62e034146101bf57806358ecdbd3146101c7576100dd565b8063218f4c0a146100e257806321e2f295146100ec5780632c45a8dc14610113575b600080fd5b6100ea61026e565b005b3480156100f857600080fd5b50610101610368565b60408051918252519081900360200190f35b34801561011f57600080fd5b5061015b600480360360c081101561013657600080fd5b5080359060208101359060408101359060608101359060808101359060a001356103cc565b604080516001600160a01b039092168252519081900360200190f35b34801561018357600080fd5b506101016004803603602081101561019a57600080fd5b50356001600160a01b03166103f3565b3480156101b657600080fd5b50610101610405565b6100ea610432565b3480156101d357600080fd5b506101016105fb565b6100ea610601565b6100ea600480360360208110156101fa57600080fd5b50356106c1565b34801561020d57600080fd5b5061010161090c565b6100ea610912565b6100ea6109d2565b34801561023257600080fd5b50610101610b8e565b34801561024757600080fd5b506101016004803603602081101561025e57600080fd5b50356001600160a01b0316610be5565b600260008154811061027c57fe5b6000918252602090912001546001600160a01b0316331461029c57600080fd5b60035460ff1680156102b0575060035460ff165b6102b957600080fd5b6009546102c461090c565b10156102cf57600080fd5b600654604051339180156108fc02916000818181858888f193505050501580156102fd573d6000803e3d6000fd5b506000600160008154811061030e57fe5b6000918252602090912001546001600160a01b03169050806108fc610331610b8e565b6040518115909202916000818181858888f19350505050158015610359573d6000803e3d6000fd5b50506003805461ffff19169055565b6000600a5461037561090c565b10156103b55760006006546103ab600260008154811061039157fe5b6000918252602090912001546001600160a01b0316610be5565b0391506103c99050565b6103c6600260008154811061039157fe5b90505b90565b6005959095556006849055600783905591909201600855600991909155600a55600b553090565b60006020819052908152604090205481565b60035460009060ff16801561041c575060035460ff165b1561042a57506004546103c9565b5060006103c9565b600160008154811061044057fe5b6000918252602090912001546001600160a01b0316331461046057600080fd5b60035460ff168015610474575060035460ff165b61047d57600080fd5b336001600160a01b03166108fc600654610495610b8e565b039081150290604051600060405180830381858888f193505050501580156104c1573d6000803e3d6000fd5b506104ca610b8e565b3360009081526020819052604081208054929092039091556002805482906104ee57fe5b600091825260209091200154600a546001600160a01b03909116915061051261090c565b11156105a857610520610368565b600080600260008154811061053157fe5b60009182526020808320909101546001600160a01b0390811684529083019390935260409091019020805492909203909155600654908216906108fc90610576610368565b019081150290604051600060405180830381858888f193505050501580156105a2573d6000803e3d6000fd5b506105e7565b806001600160a01b03166108fc6105bd610368565b6040518115909202916000818181858888f193505050501580156105e5573d6000803e3d6000fd5b505b506003805462ff0000191662010000179055565b600b5481565b6005543481146106425760405162461bcd60e51b8152600401808060200182810382526024815260200180610db16024913960400191505060405180910390fd5b33600081815260208190526040812080543490810190915560018054808201825592527fb10e2d527612073b26eecdfd717e6a320cf44b4afac2b0732d9fcbe2b7fa0cf690910180546001600160a01b03191690921790915581116106be576003805461ff001960ff1990911660011716610100179055426004555b50565b60016000815481106106cf57fe5b6000918252602090912001546001600160a01b031633146106ef57600080fd5b60035460ff168015610703575060035460ff165b61070c57600080fd5b60095461071761090c565b1061086457336001600160a01b03166108fc600554600080600160008154811061073d57fe5b60009182526020808320909101546001600160a01b031683528201929092526040908101822054905192018015909302929190818181858888f1935050505015801561078d573d6000803e3d6000fd5b50600080600060016000815481106107a157fe5b60009182526020808320909101546001600160a01b031683528201929092526040018120919091556002805482906107d557fe5b60009182526020822001546006546040516001600160a01b039092169350839281156108fc029290818181858888f1935050505015801561081a573d6000803e3d6000fd5b506000806000600260008154811061082e57fe5b60009182526020808320909101546001600160a01b03168352820192909252604001902055506003805461ffff191690556106be565b61086c61090c565b600a5411158015610885575060095461088361090c565b105b156108e757600654610895610b8e565b038111156108a257600080fd5b33600081815260208190526040808220805485900390555183156108fc0291849190818181858888f193505050501580156108e1573d6000803e3d6000fd5b506106be565b600a546108f261090c565b10156106be57610900610b8e565b8111156108a257600080fd5b600b5490565b6008543481146109535760405162461bcd60e51b8152600401808060200182810382526024815260200180610db16024913960400191505060405180910390fd5b3360008181526020819052604081208054349081019091556002805460018101825592527f405787fa12a823e0f2b7631cc41b3ba8828b3321ca811111fa75cd3aa3bb5ace90910180546001600160a01b03191690921790915581116106be576003805460ff1961ff0019909116610100171660011790554260045550565b60026000815481106109e057fe5b6000918252602090912001546001600160a01b03163314610a0057600080fd5b60035460ff168015610a14575060035460ff165b610a1d57600080fd5b336001600160a01b03166108fc600654610a35610368565b039081150290604051600060405180830381858888f19350505050158015610a61573d6000803e3d6000fd5b50336000908152602081905260408120819055600180548290610a8057fe5b600091825260209091200154600a546001600160a01b039091169150610aa461090c565b1115610b3957806001600160a01b03166108fc600554610ac2610b8e565b019081150290604051600060405180830381858888f19350505050158015610aee573d6000803e3d6000fd5b50610af7610b8e565b6000806001600081548110610b0857fe5b60009182526020808320909101546001600160a01b0316835282019290925260400190208054919091039055610b78565b806001600160a01b03166108fc610b4e610b8e565b6040518115909202916000818181858888f19350505050158015610b76573d6000803e3d6000fd5b505b506003805463ff00000019166301000000179055565b6000600a54610b9b61090c565b1015610bd457610bb2600160008154811061039157fe5b610bbe575060006103c9565b60006005546103ab600160008154811061039157fe5b6103c6600160008154811061039157fe5b60006001600081548110610bf557fe5b6000918252602090912001546001600160a01b0383811691161480610c3e57506002600081548110610c2357fe5b6000918252602090912001546001600160a01b038381169116145b610c4757600080fd5b6000610c5161090c565b9050600954811115610c6257506009545b600060095460075481610c7157fe5b049050600082820290506001600081548110610c8957fe5b6000918252602090912001546001600160a01b0386811691161415610cee576000816000806001600081548110610cbc57fe5b60009182526020808320909101546001600160a01b03168352820192909252604001902054019450610dab9350505050565b6002600081548110610cfc57fe5b6000918252602090912001546001600160a01b0386811691161415610da7576000806002600081548110610d2c57fe5b60009182526020808320909101546001600160a01b03168352820192909252604001902054610d615760009350505050610dab565b6000816000806002600081548110610d7557fe5b60009182526020808320909101546001600160a01b03168352820192909252604001902054039450610dab9350505050565b5050505b91905056fe4e65656420746f206465706f73697420746865207265717569726564204d617267696e21a264697066735822122038bb277a7006ecdda9a0e0da113459adfb58f1545b2e11b345172cc79c82d15164736f6c634300060c0033",
  "bytecodeSha1": "37eaebabe0d84cab419392614b17a3a5c40f420b",
  "compiler": {
    "evm_version": "istanbul",
    "optimizer": {
      "enabled": true,
      "runs": 200
    },
    "version": "0.6.12+commit.27d51765"
  },
  "contractName": "LeaseMargins",
  "language": "Solidity",
  "natspec": {
    "kind": "dev",
    "methods": {},
    "version": 1
  },
  "opcodes": "PUSH1 0x80 PUSH1 0x40 MSTORE PUSH1 0x4 CALLDATASIZE LT PUSH2 0xDD JUMPI PUSH1 0x0 CALLDATALOAD PUSH1 0xE0 SHR DUP1 PUSH4 0x716E5595 GT PUSH2 0x7F JUMPI DUP1 PUSH4 0xA0ED6D8D GT PUSH2 0x59 JUMPI DUP1 PUSH4 0xA0ED6D8D EQ PUSH2 0x216 JUMPI DUP1 PUSH4 0xB2996DBB EQ PUSH2 0x21E JUMPI DUP1 PUSH4 0xE225F265 EQ PUSH2 0x226 JUMPI DUP1 PUSH4 0xF8B2CB4F EQ PUSH2 0x23B JUMPI PUSH2 0xDD JUMP JUMPDEST DUP1 PUSH4 0x716E5595 EQ PUSH2 0x1DC JUMPI DUP1 PUSH4 0x7D26EFE6 EQ PUSH2 0x1E4 JUMPI DUP1 PUSH4 0x877F5718 EQ PUSH2 0x201 JUMPI PUSH2 0xDD JUMP JUMPDEST DUP1 PUSH4 0x3E47D6F3 GT PUSH2 0xBB JUMPI DUP1 PUSH4 0x3E47D6F3 EQ PUSH2 0x177 JUMPI DUP1 PUSH4 0x478C9DC9 EQ PUSH2 0x1AA JUMPI DUP1 PUSH4 0x4E62E034 EQ PUSH2 0x1BF JUMPI DUP1 PUSH4 0x58ECDBD3 EQ PUSH2 0x1C7 JUMPI PUSH2 0xDD JUMP JUMPDEST DUP1 PUSH4 0x218F4C0A EQ PUSH2 0xE2 JUMPI DUP1 PUSH4 0x21E2F295 EQ PUSH2 0xEC JUMPI DUP1 PUSH4 0x2C45A8DC EQ PUSH2 0x113 JUMPI JUMPDEST PUSH1 0x0 DUP1 REVERT JUMPDEST PUSH2 0xEA PUSH2 0x26E JUMP JUMPDEST STOP JUMPDEST CALLVALUE DUP1 ISZERO PUSH2 0xF8 JUMPI PUSH1 0x0 DUP1 REVERT JUMPDEST POP PUSH2 0x101 PUSH2 0x368 JUMP JUMPDEST PUSH1 0x40 DUP1 MLOAD SWAP2 DUP3 MSTORE MLOAD SWAP1 DUP2 SWAP1 SUB PUSH1 0x20 ADD SWAP1 RETURN JUMPDEST CALLVALUE DUP1 ISZERO PUSH2 0x11F JUMPI PUSH1 0x0 DUP1 REVERT JUMPDEST POP PUSH2 0x15B PUSH1 0x4 DUP1 CALLDATASIZE SUB PUSH1 0xC0 DUP2 LT ISZERO PUSH2 0x136 JUMPI PUSH1 0x0 DUP1 REVERT JUMPDEST POP DUP1 CALLDATALOAD SWAP1 PUSH1 0x20 DUP2 ADD CALLDATALOAD SWAP1 PUSH1 0x40 DUP2 ADD CALLDATALOAD SWAP1 PUSH1 0x60 DUP2 ADD CALLDATALOAD SWAP1 PUSH1 0x80 DUP2 ADD CALLDATALOAD SWAP1 PUSH1 0xA0 ADD CALLDATALOAD PUSH2 0x3CC JUMP JUMPDEST PUSH1 0x40 DUP1 MLOAD PUSH1 0x1 PUSH1 0x1 PUSH1 0xA0 SHL SUB SWAP1 SWAP3 AND DUP3 MSTORE MLOAD SWAP1 DUP2 SWAP1 SUB PUSH1 0x20 ADD SWAP1 RETURN JUMPDEST CALLVALUE DUP1 ISZERO PUSH2 0x183 JUMPI PUSH1 0x0 DUP1 REVERT JUMPDEST POP PUSH2 0x101 PUSH1 0x4 DUP1 CALLDATASIZE SUB PUSH1 0x20 DUP2 LT ISZERO PUSH2 0x19A JUMPI PUSH1 0x0 DUP1 REVERT JUMPDEST POP CALLDATALOAD PUSH1 0x1 PUSH1 0x1 PUSH1 0xA0 SHL SUB AND PUSH2 0x3F3 JUMP JUMPDEST CALLVALUE DUP1 ISZERO PUSH2 0x1B6 JUMPI PUSH1 0x0 DUP1 REVERT JUMPDEST POP PUSH2 0x101 PUSH2 0x405 JUMP JUMPDEST PUSH2 0xEA PUSH2 0x432 JUMP JUMPDEST CALLVALUE DUP1 ISZERO PUSH2 0x1D3 JUMPI PUSH1 0x0 DUP1 REVERT JUMPDEST POP PUSH2 0x101 PUSH2 0x5FB JUMP JUMPDEST PUSH2 0xEA PUSH2 0x601 JUMP JUMPDEST PUSH2 0xEA PUSH1 0x4 DUP1 CALLDATASIZE SUB PUSH1 0x20 DUP2 LT ISZERO PUSH2 0x1FA JUMPI PUSH1 0x0 DUP1 REVERT JUMPDEST POP CALLDATALOAD PUSH2 0x6C1 JUMP JUMPDEST CALLVALUE DUP1 ISZERO PUSH2 0x20D JUMPI PUSH1 0x0 DUP1 REVERT JUMPDEST POP PUSH2 0x101 PUSH2 0x90C JUMP JUMPDEST PUSH2 0xEA PUSH2 0x912 JUMP JUMPDEST PUSH2 0xEA PUSH2 0x9D2 JUMP JUMPDEST CALLVALUE DUP1 ISZERO PUSH2 0x232 JUMPI PUSH1 0x0 DUP1 REVERT JUMPDEST POP PUSH2 0x101 PUSH2 0xB8E JUMP JUMPDEST CALLVALUE DUP1 ISZERO PUSH2 0x247 JUMPI PUSH1 0x0 DUP1 REVERT JUMPDEST POP PUSH2 0x101 PUSH1 0x4 DUP1 CALLDATASIZE SUB PUSH1 0x20 DUP2 LT ISZERO PUSH2 0x25E JUMPI PUSH1 0x0 DUP1 REVERT JUMPDEST POP CALLDATALOAD PUSH1 0x1 PUSH1 0x1 PUSH1 0xA0 SHL SUB AND PUSH2 0xBE5 JUMP JUMPDEST PUSH1 0x2 PUSH1 0x0 DUP2 SLOAD DUP2 LT PUSH2 0x27C JUMPI INVALID JUMPDEST PUSH1 0x0 SWAP2 DUP3 MSTORE PUSH1 0x20 SWAP1 SWAP2 KECCAK256 ADD SLOAD PUSH1 0x1 PUSH1 0x1 PUSH1 0xA0 SHL SUB AND CALLER EQ PUSH2 0x29C JUMPI PUSH1 0x0 DUP1 REVERT JUMPDEST PUSH1 0x3 SLOAD PUSH1 0xFF AND DUP1 ISZERO PUSH2 0x2B0 JUMPI POP PUSH1 0x3 SLOAD PUSH1 0xFF AND JUMPDEST PUSH2 0x2B9 JUMPI PUSH1 0x0 DUP1 REVERT JUMPDEST PUSH1 0x9 SLOAD PUSH2 0x2C4 PUSH2 0x90C JUMP JUMPDEST LT ISZERO PUSH2 0x2CF JUMPI PUSH1 0x0 DUP1 REVERT JUMPDEST PUSH1 0x6 SLOAD PUSH1 0x40 MLOAD CALLER SWAP2 DUP1 ISZERO PUSH2 0x8FC MUL SWAP2 PUSH1 0x0 DUP2 DUP2 DUP2 DUP6 DUP9 DUP9 CALL SWAP4 POP POP POP POP ISZERO DUP1 ISZERO PUSH2 0x2FD JUMPI RETURNDATASIZE PUSH1 0x0 DUP1 RETURNDATACOPY RETURNDATASIZE PUSH1 0x0 REVERT JUMPDEST POP PUSH1 0x0 PUSH1 0x1 PUSH1 0x0 DUP2 SLOAD DUP2 LT PUSH2 0x30E JUMPI INVALID JUMPDEST PUSH1 0x0 SWAP2 DUP3 MSTORE PUSH1 0x20 SWAP1 SWAP2 KECCAK256 ADD SLOAD PUSH1 0x1 PUSH1 0x1 PUSH1 0xA0 SHL SUB AND SWAP1 POP DUP1 PUSH2 0x8FC PUSH2 0x331 PUSH2 0xB8E JUMP JUMPDEST PUSH1 0x40 MLOAD DUP2 ISZERO SWAP1 SWAP3 MUL SWAP2 PUSH1 0x0 DUP2 DUP2 DUP2 DUP6 DUP9 DUP9 CALL SWAP4 POP POP POP POP ISZERO DUP1 ISZERO PUSH2 0x359 JUMPI RETURNDATASIZE PUSH1 0x0 DUP1 RETURNDATACOPY RETURNDATASIZE PUSH1 0x0 REVERT JUMPDEST POP POP PUSH1 0x3 DUP1 SLOAD PUSH2 0xFFFF NOT AND SWAP1 SSTORE JUMP JUMPDEST PUSH1 0x0 PUSH1 0xA SLOAD PUSH2 0x375 PUSH2 0x90C JUMP JUMPDEST LT ISZERO PUSH2 0x3B5 JUMPI PUSH1 0x0 PUSH1 0x6 SLOAD PUSH2 0x3AB PUSH1 0x2 PUSH1 0x0 DUP2 SLOAD DUP2 LT PUSH2 0x391 JUMPI INVALID JUMPDEST PUSH1 0x0 SWAP2 DUP3 MSTORE PUSH1 0x20 SWAP1 SWAP2 KECCAK256 ADD SLOAD PUSH1 0x1 PUSH1 0x1 PUSH1 0xA0 SHL SUB AND PUSH2 0xBE5 JUMP JUMPDEST SUB SWAP2 POP PUSH2 0x3C9 SWAP1 POP JUMP JUMPDEST PUSH2 0x3C6 PUSH1 0x2 PUSH1 0x0 DUP2 SLOAD DUP2 LT PUSH2 0x391 JUMPI INVALID JUMPDEST SWAP1 POP JUMPDEST SWAP1 JUMP JUMPDEST PUSH1 0x5 SWAP6 SWAP1 SWAP6 SSTORE PUSH1 0x6 DUP5 SWAP1 SSTORE PUSH1 0x7 DUP4 SWAP1 SSTORE SWAP2 SWAP1 SWAP3 ADD PUSH1 0x8 SSTORE PUSH1 0x9 SWAP2 SWAP1 SWAP2 SSTORE PUSH1 0xA SSTORE PUSH1 0xB SSTORE ADDRESS SWAP1 JUMP JUMPDEST PUSH1 0x0 PUSH1 0x20 DUP2 SWAP1 MSTORE SWAP1 DUP2 MSTORE PUSH1 0x40 SWAP1 KECCAK256 SLOAD DUP2 JUMP JUMPDEST PUSH1 0x3 SLOAD PUSH1 0x0 SWAP1 PUSH1 0xFF AND DUP1 ISZERO PUSH2 0x41C JUMPI POP PUSH1 0x3 SLOAD PUSH1 0xFF AND JUMPDEST ISZERO PUSH2 0x42A JUMPI POP PUSH1 0x4 SLOAD PUSH2 0x3C9 JUMP JUMPDEST POP PUSH1 0x0 PUSH2 0x3C9 JUMP JUMPDEST PUSH1 0x1 PUSH1 0x0 DUP2 SLOAD DUP2 LT PUSH2 0x440 JUMPI INVALID JUMPDEST PUSH1 0x0 SWAP2 DUP3 MSTORE PUSH1 0x20 SWAP1 SWAP2 KECCAK256 ADD SLOAD PUSH1 0x1 PUSH1 0x1 PUSH1 0xA0 SHL SUB AND CALLER EQ PUSH2 0x460 JUMPI PUSH1 0x0 DUP1 REVERT JUMPDEST PUSH1 0x3 SLOAD PUSH1 0xFF AND DUP1 ISZERO PUSH2 0x474 JUMPI POP PUSH1 0x3 SLOAD PUSH1 0xFF AND JUMPDEST PUSH2 0x47D JUMPI PUSH1 0x0 DUP1 REVERT JUMPDEST CALLER PUSH1 0x1 PUSH1 0x1 PUSH1 0xA0 SHL SUB AND PUSH2 0x8FC PUSH1 0x6 SLOAD PUSH2 0x495 PUSH2 0xB8E JUMP JUMPDEST SUB SWAP1 DUP2 ISZERO MUL SWAP1 PUSH1 0x40 MLOAD PUSH1 0x0 PUSH1 0x40 MLOAD DUP1 DUP4 SUB DUP2 DUP6 DUP9 DUP9 CALL SWAP4 POP POP POP POP ISZERO DUP1 ISZERO PUSH2 0x4C1 JUMPI RETURNDATASIZE PUSH1 0x0 DUP1 RETURNDATACOPY RETURNDATASIZE PUSH1 0x0 REVERT JUMPDEST POP PUSH2 0x4CA PUSH2 0xB8E JUMP JUMPDEST CALLER PUSH1 0x0 SWAP1 DUP2 MSTORE PUSH1 0x20 DUP2 SWAP1 MSTORE PUSH1 0x40 DUP2 KECCAK256 DUP1 SLOAD SWAP3 SWAP1 SWAP3 SUB SWAP1 SWAP2 SSTORE PUSH1 0x2 DUP1 SLOAD DUP3 SWAP1 PUSH2 0x4EE JUMPI INVALID JUMPDEST PUSH1 0x0 SWAP2 DUP3 MSTORE PUSH1 0x20 SWAP1 SWAP2 KECCAK256 ADD SLOAD PUSH1 0xA SLOAD PUSH1 0x1 PUSH1 0x1 PUSH1 0xA0 SHL SUB SWAP1 SWAP2 AND SWAP2 POP PUSH2 0x512 PUSH2 0x90C JUMP JUMPDEST GT ISZERO PUSH2 0x5A8 JUMPI PUSH2 0x520 PUSH2 0x368 JUMP JUMPDEST PUSH1 0x0 DUP1 PUSH1 0x2 PUSH1 0x0 DUP2 SLOAD DUP2 LT PUSH2 0x531 JUMPI INVALID JUMPDEST PUSH1 0x0 SWAP2 DUP3 MSTORE PUSH1 0x20 DUP1 DUP4 KECCAK256 SWAP1 SWAP2 ADD SLOAD PUSH1 0x1 PUSH1 0x1 PUSH1 0xA0 SHL SUB SWAP1 DUP2 AND DUP5 MSTORE SWAP1 DUP4 ADD SWAP4 SWAP1 SWAP4 MSTORE PUSH1 0x40 SWAP1 SWAP2 ADD SWAP1 KECCAK256 DUP1 SLOAD SWAP3 SWAP1 SWAP3 SUB SWAP1 SWAP2 SSTORE PUSH1 0x6 SLOAD SWAP1 DUP3 AND SWAP1 PUSH2 0x8FC SWAP1 PUSH2 0x576 PUSH2 0x368 JUMP JUMPDEST ADD SWAP1 DUP2 ISZERO MUL SWAP1 PUSH1 0x40 MLOAD PUSH1 0x0 PUSH1 0x40 MLOAD DUP1 DUP4 SUB DUP2 DUP6 DUP9 DUP9 CALL SWAP4 POP POP POP POP ISZERO DUP1 ISZERO PUSH2 0x5A2 JUMPI RETURNDATASIZE PUSH1 0x0 DUP1 RETURNDATACOPY RETURNDATASIZE PUSH1 0x0 REVERT JUMPDEST POP PUSH2 0x5E7 JUMP JUMPDEST DUP1 PUSH1 0x1 PUSH1 0x1 PUSH1 0xA0 SHL SUB AND PUSH2 0x8FC PUSH2 0x5BD PUSH2 0x368 JUMP JUMPDEST PUSH1 0x40 MLOAD DUP2 ISZERO SWAP1 SWAP3 MUL SWAP2 PUSH1 0x0 DUP2 DUP2 DUP2 DUP6 DUP9 DUP9 CALL SWAP4 POP POP POP POP ISZERO DUP1 ISZERO PUSH2 0x5E5 JUMPI RETURNDATASIZE PUSH1 0x0 DUP1 RETURNDATACOPY RETURNDATASIZE PUSH1 0x0 REVERT JUMPDEST POP JUMPDEST POP PUSH1 0x3 DUP1 SLOAD PUSH3 0xFF0000 NOT AND PUSH3 0x10000 OR SWAP1 SSTORE JUMP JUMPDEST PUSH1 0xB SLOAD DUP2 JUMP JUMPDEST PUSH1 0x5 SLOAD CALLVALUE DUP2 EQ PUSH2 0x642 JUMPI PUSH1 0x40 MLOAD PUSH3 0x461BCD PUSH1 0xE5 SHL DUP2 MSTORE PUSH1 0x4 ADD DUP1 DUP1 PUSH1 0x20 ADD DUP3 DUP2 SUB DUP3 MSTORE PUSH1 0x24 DUP2 MSTORE PUSH1 0x20 ADD DUP1 PUSH2 0xDB1 PUSH1 0x24 SWAP2 CODECOPY PUSH1 0x40 ADD SWAP2 POP POP PUSH1 0x40 MLOAD DUP1 SWAP2 SUB SWAP1 REVERT JUMPDEST CALLER PUSH1 0x0 DUP2 DUP2 MSTORE PUSH1 0x20 DUP2 SWAP1 MSTORE PUSH1 0x40 DUP2 KECCAK256 DUP1 SLOAD CALLVALUE SWAP1 DUP2 ADD SWAP1 SWAP2 SSTORE PUSH1 0x1 DUP1 SLOAD DUP1 DUP3 ADD DUP3 SSTORE SWAP3 MSTORE PUSH32 0xB10E2D527612073B26EECDFD717E6A320CF44B4AFAC2B0732D9FCBE2B7FA0CF6 SWAP1 SWAP2 ADD DUP1 SLOAD PUSH1 0x1 PUSH1 0x1 PUSH1 0xA0 SHL SUB NOT AND SWAP1 SWAP3 OR SWAP1 SWAP2 SSTORE DUP2 GT PUSH2 0x6BE JUMPI PUSH1 0x3 DUP1 SLOAD PUSH2 0xFF00 NOT PUSH1 0xFF NOT SWAP1 SWAP2 AND PUSH1 0x1 OR AND PUSH2 0x100 OR SWAP1 SSTORE TIMESTAMP PUSH1 0x4 SSTORE JUMPDEST POP JUMP JUMPDEST PUSH1 0x1 PUSH1 0x0 DUP2 SLOAD DUP2 LT PUSH2 0x6CF JUMPI INVALID JUMPDEST PUSH1 0x0 SWAP2 DUP3 MSTORE PUSH1 0x20 SWAP1 SWAP2 KECCAK256 ADD SLOAD PUSH1 0x1 PUSH1 0x1 PUSH1 0xA0 SHL SUB AND CALLER EQ PUSH2 0x6EF JUMPI PUSH1 0x0 DUP1 REVERT JUMPDEST PUSH1 0x3 SLOAD PUSH1 0xFF AND DUP1 ISZERO PUSH2 0x703 JUMPI POP PUSH1 0x3 SLOAD PUSH1 0xFF AND JUMPDEST PUSH2 0x70C JUMPI PUSH1 0x0 DUP1 REVERT JUMPDEST PUSH1 0x9 SLOAD PUSH2 0x717 PUSH2 0x90C JUMP JUMPDEST LT PUSH2 0x864 JUMPI CALLER PUSH1 0x1 PUSH1 0x1 PUSH1 0xA0 SHL SUB AND PUSH2 0x8FC PUSH1 0x5 SLOAD PUSH1 0x0 DUP1 PUSH1 0x1 PUSH1 0x0 DUP2 SLOAD DUP2 LT PUSH2 0x73D JUMPI INVALID JUMPDEST PUSH1 0x0 SWAP2 DUP3 MSTORE PUSH1 0x20 DUP1 DUP4 KECCAK256 SWAP1 SWAP2 ADD SLOAD PUSH1 0x1 PUSH1 0x1 PUSH1 0xA0 SHL SUB AND DUP4 MSTORE DUP3 ADD SWAP3 SWAP1 SWAP3 MSTORE PUSH1 0x40 SWAP1 DUP2 ADD DUP3 KECCAK256 SLOAD SWAP1 MLOAD SWAP3 ADD DUP1 ISZERO SWAP1 SWAP4 MUL SWAP3 SWAP2 SWAP1 DUP2 DUP2 DUP2 DUP6 DUP9 DUP9 CALL SWAP4 POP POP POP POP ISZERO DUP1 ISZERO PUSH2 0x78D JUMPI RETURNDATASIZE PUSH1 0x0 DUP1 RETURNDATACOPY RETURNDATASIZE PUSH1 0x0 REVERT JUMPDEST POP PUSH1 0x0 DUP1 PUSH1 0x0 PUSH1 0x1 PUSH1 0x0 DUP2 SLOAD DUP2 LT PUSH2 0x7A1 JUMPI INVALID JUMPDEST PUSH1 0x0 SWAP2 DUP3 MSTORE PUSH1 0x20 DUP1 DUP4 KECCAK256 SWAP1 SWAP2 ADD SLOAD PUSH1 0x1 PUSH1 0x1 PUSH1 0xA0 SHL SUB AND DUP4 MSTORE DUP3 ADD SWAP3 SWAP1 SWAP3 MSTORE PUSH1 0x40 ADD DUP2 KECCAK256 SWAP2 SWAP1 SWAP2 SSTORE PUSH1 0x2 DUP1 SLOAD DUP3 SWAP1 PUSH2 0x7D5 JUMPI INVALID JUMPDEST PUSH1 0x0 SWAP2 DUP3 MSTORE PUSH1 0x20 DUP3 KECCAK256 ADD SLOAD PUSH1 0x6 SLOAD PUSH1 0x40 MLOAD PUSH1 0x1 PUSH1 0x1 PUSH1 0xA0 SHL SUB SWAP1 SWAP3 AND SWAP4 POP DUP4 SWAP3 DUP2 ISZERO PUSH2 0x8FC MUL SWAP3 SWAP1 DUP2 DUP2 DUP2 DUP6 DUP9 DUP9 CALL SWAP4 POP POP POP POP ISZERO DUP1 ISZERO PUSH2 0x81A JUMPI RETURNDATASIZE PUSH1 0x0 DUP1 RETURNDATACOPY RETURNDATASIZE PUSH1 0x0 REVERT JUMPDEST POP PUSH1 0x0 DUP1 PUSH1 0x0 PUSH1 0x2 PUSH1 0x0 DUP2 SLOAD DUP2 LT PUSH2 0x82E JUMPI INVALID JUMPDEST PUSH1 0x0 SWAP2 DUP3 MSTORE PUSH1 0x20 DUP1 DUP4 KECCAK256 SWAP1 SWAP2 ADD SLOAD PUSH1 0x1 PUSH1 0x1 PUSH1 0xA0 SHL SUB AND DUP4 MSTORE DUP3 ADD SWAP3 SWAP1 SWAP3 MSTORE PUSH1 0x40 ADD SWAP1 KECCAK256 SSTORE POP PUSH1 0x3 DUP1 SLOAD PUSH2 0xFFFF NOT AND SWAP1 SSTORE PUSH2 0x6BE JUMP JUMPDEST PUSH2 0x86C PUSH2 0x90C JUMP JUMPDEST PUSH1 0xA SLOAD GT ISZERO DUP1 ISZERO PUSH2 0x885 JUMPI POP PUSH1 0x9 SLOAD PUSH2 0x883 PUSH2 0x90C JUMP JUMPDEST LT JUMPDEST ISZERO PUSH2 0x8E7 JUMPI PUSH1 0x6 SLOAD PUSH2 0x895 PUSH2 0xB8E JUMP JUMPDEST SUB DUP2 GT ISZERO PUSH2 0x8A2 JUMPI PUSH1 0x0 DUP1 REVERT JUMPDEST CALLER PUSH1 0x0 DUP2 DUP2 MSTORE PUSH1 0x20 DUP2 SWAP1 MSTORE PUSH1 0x40 DUP1 DUP3 KECCAK256 DUP1 SLOAD DUP6 SWAP1 SUB SWAP1 SSTORE MLOAD DUP4 ISZERO PUSH2 0x8FC MUL SWAP2 DUP5 SWAP2 SWAP1 DUP2 DUP2 DUP2 DUP6 DUP9 DUP9 CALL SWAP4 POP POP POP POP ISZERO DUP1 ISZERO PUSH2 0x8E1 JUMPI RETURNDATASIZE PUSH1 0x0 DUP1 RETURNDATACOPY RETURNDATASIZE PUSH1 0x0 REVERT JUMPDEST POP PUSH2 0x6BE JUMP JUMPDEST PUSH1 0xA SLOAD PUSH2 0x8F2 PUSH2 0x90C JUMP JUMPDEST LT ISZERO PUSH2 0x6BE JUMPI PUSH2 0x900 PUSH2 0xB8E JUMP JUMPDEST DUP2 GT ISZERO PUSH2 0x8A2 JUMPI PUSH1 0x0 DUP1 REVERT JUMPDEST PUSH1 0xB SLOAD SWAP1 JUMP JUMPDEST PUSH1 0x8 SLOAD CALLVALUE DUP2 EQ PUSH2 0x953 JUMPI PUSH1 0x40 MLOAD PUSH3 0x461BCD PUSH1 0xE5 SHL DUP2 MSTORE PUSH1 0x4 ADD DUP1 DUP1 PUSH1 0x20 ADD DUP3 DUP2 SUB DUP3 MSTORE PUSH1 0x24 DUP2 MSTORE PUSH1 0x20 ADD DUP1 PUSH2 0xDB1 PUSH1 0x24 SWAP2 CODECOPY PUSH1 0x40 ADD SWAP2 POP POP PUSH1 0x40 MLOAD DUP1 SWAP2 SUB SWAP1 REVERT JUMPDEST CALLER PUSH1 0x0 DUP2 DUP2 MSTORE PUSH1 0x20 DUP2 SWAP1 MSTORE PUSH1 0x40 DUP2 KECCAK256 DUP1 SLOAD CALLVALUE SWAP1 DUP2 ADD SWAP1 SWAP2 SSTORE PUSH1 0x2 DUP1 SLOAD PUSH1 0x1 DUP2 ADD DUP3 SSTORE SWAP3 MSTORE PUSH32 0x405787FA12A823E0F2B7631CC41B3BA8828B3321CA811111FA75CD3AA3BB5ACE SWAP1 SWAP2 ADD DUP1 SLOAD PUSH1 0x1 PUSH1 0x1 PUSH1 0xA0 SHL SUB NOT AND SWAP1 SWAP3 OR SWAP1 SWAP2 SSTORE DUP2 GT PUSH2 0x6BE JUMPI PUSH1 0x3 DUP1 SLOAD PUSH1 0xFF NOT PUSH2 0xFF00 NOT SWAP1 SWAP2 AND PUSH2 0x100 OR AND PUSH1 0x1 OR SWAP1 SSTORE TIMESTAMP PUSH1 0x4 SSTORE POP JUMP JUMPDEST PUSH1 0x2 PUSH1 0x0 DUP2 SLOAD DUP2 LT PUSH2 0x9E0 JUMPI INVALID JUMPDEST PUSH1 0x0 SWAP2 DUP3 MSTORE PUSH1 0x20 SWAP1 SWAP2 KECCAK256 ADD SLOAD PUSH1 0x1 PUSH1 0x1 PUSH1 0xA0 SHL SUB AND CALLER EQ PUSH2 0xA00 JUMPI PUSH1 0x0 DUP1 REVERT JUMPDEST PUSH1 0x3 SLOAD PUSH1 0xFF AND DUP1 ISZERO PUSH2 0xA14 JUMPI POP PUSH1 0x3 SLOAD PUSH1 0xFF AND JUMPDEST PUSH2 0xA1D JUMPI PUSH1 0x0 DUP1 REVERT JUMPDEST CALLER PUSH1 0x1 PUSH1 0x1 PUSH1 0xA0 SHL SUB AND PUSH2 0x8FC PUSH1 0x6 SLOAD PUSH2 0xA35 PUSH2 0x368 JUMP JUMPDEST SUB SWAP1 DUP2 ISZERO MUL SWAP1 PUSH1 0x40 MLOAD PUSH1 0x0 PUSH1 0x40 MLOAD DUP1 DUP4 SUB DUP2 DUP6 DUP9 DUP9 CALL SWAP4 POP POP POP POP ISZERO DUP1 ISZERO PUSH2 0xA61 JUMPI RETURNDATASIZE PUSH1 0x0 DUP1 RETURNDATACOPY RETURNDATASIZE PUSH1 0x0 REVERT JUMPDEST POP CALLER PUSH1 0x0 SWAP1 DUP2 MSTORE PUSH1 0x20 DUP2 SWAP1 MSTORE PUSH1 0x40 DUP2 KECCAK256 DUP2 SWAP1 SSTORE PUSH1 0x1 DUP1 SLOAD DUP3 SWAP1 PUSH2 0xA80 JUMPI INVALID JUMPDEST PUSH1 0x0 SWAP2 DUP3 MSTORE PUSH1 0x20 SWAP1 SWAP2 KECCAK256 ADD SLOAD PUSH1 0xA SLOAD PUSH1 0x1 PUSH1 0x1 PUSH1 0xA0 SHL SUB SWAP1 SWAP2 AND SWAP2 POP PUSH2 0xAA4 PUSH2 0x90C JUMP JUMPDEST GT ISZERO PUSH2 0xB39 JUMPI DUP1 PUSH1 0x1 PUSH1 0x1 PUSH1 0xA0 SHL SUB AND PUSH2 0x8FC PUSH1 0x5 SLOAD PUSH2 0xAC2 PUSH2 0xB8E JUMP JUMPDEST ADD SWAP1 DUP2 ISZERO MUL SWAP1 PUSH1 0x40 MLOAD PUSH1 0x0 PUSH1 0x40 MLOAD DUP1 DUP4 SUB DUP2 DUP6 DUP9 DUP9 CALL SWAP4 POP POP POP POP ISZERO DUP1 ISZERO PUSH2 0xAEE JUMPI RETURNDATASIZE PUSH1 0x0 DUP1 RETURNDATACOPY RETURNDATASIZE PUSH1 0x0 REVERT JUMPDEST POP PUSH2 0xAF7 PUSH2 0xB8E JUMP JUMPDEST PUSH1 0x0 DUP1 PUSH1 0x1 PUSH1 0x0 DUP2 SLOAD DUP2 LT PUSH2 0xB08 JUMPI INVALID JUMPDEST PUSH1 0x0 SWAP2 DUP3 MSTORE PUSH1 0x20 DUP1 DUP4 KECCAK256 SWAP1 SWAP2 ADD SLOAD PUSH1 0x1 PUSH1 0x1 PUSH1 0xA0 SHL SUB AND DUP4 MSTORE DUP3 ADD SWAP3 SWAP1 SWAP3 MSTORE PUSH1 0x40 ADD SWAP1 KECCAK256 DUP1 SLOAD SWAP2 SWAP1 SWAP2 SUB SWAP1 SSTORE PUSH2 0xB78 JUMP JUMPDEST DUP1 PUSH1 0x1 PUSH1 0x1 PUSH1 0xA0 SHL SUB AND PUSH2 0x8FC PUSH2 0xB4E PUSH2 0xB8E JUMP JUMPDEST PUSH1 0x40 MLOAD DUP2 ISZERO SWAP1 SWAP3 MUL SWAP2 PUSH1 0x0 DUP2 DUP2 DUP2 DUP6 DUP9 DUP9 CALL SWAP4 POP POP POP POP ISZERO DUP1 ISZERO PUSH2 0xB76 JUMPI RETURNDATASIZE PUSH1 0x0 DUP1 RETURNDATACOPY RETURNDATASIZE PUSH1 0x0 REVERT JUMPDEST POP JUMPDEST POP PUSH1 0x3 DUP1 SLOAD PUSH4 0xFF000000 NOT AND PUSH4 0x1000000 OR SWAP1 SSTORE JUMP JUMPDEST PUSH1 0x0 PUSH1 0xA SLOAD PUSH2 0xB9B PUSH2 0x90C JUMP JUMPDEST LT ISZERO PUSH2 0xBD4 JUMPI PUSH2 0xBB2 PUSH1 0x1 PUSH1 0x0 DUP2 SLOAD DUP2 LT PUSH2 0x391 JUMPI INVALID JUMPDEST PUSH2 0xBBE JUMPI POP PUSH1 0x0 PUSH2 0x3C9 JUMP JUMPDEST PUSH1 0x0 PUSH1 0x5 SLOAD PUSH2 0x3AB PUSH1 0x1 PUSH1 0x0 DUP2 SLOAD DUP2 LT PUSH2 0x391 JUMPI INVALID JUMPDEST PUSH2 0x3C6 PUSH1 0x1 PUSH1 0x0 DUP2 SLOAD DUP2 LT PUSH2 0x391 JUMPI INVALID JUMPDEST PUSH1 0x0 PUSH1 0x1 PUSH1 0x0 DUP2 SLOAD DUP2 LT PUSH2 0xBF5 JUMPI INVALID JUMPDEST PUSH1 0x0 SWAP2 DUP3 MSTORE PUSH1 0x20 SWAP1 SWAP2 KECCAK256 ADD SLOAD PUSH1 0x1 PUSH1 0x1 PUSH1 0xA0 SHL SUB DUP4 DUP2 AND SWAP2 AND EQ DUP1 PUSH2 0xC3E JUMPI POP PUSH1 0x2 PUSH1 0x0 DUP2 SLOAD DUP2 LT PUSH2 0xC23 JUMPI INVALID JUMPDEST PUSH1 0x0 SWAP2 DUP3 MSTORE PUSH1 0x20 SWAP1 SWAP2 KECCAK256 ADD SLOAD PUSH1 0x1 PUSH1 0x1 PUSH1 0xA0 SHL SUB DUP4 DUP2 AND SWAP2 AND EQ JUMPDEST PUSH2 0xC47 JUMPI PUSH1 0x0 DUP1 REVERT JUMPDEST PUSH1 0x0 PUSH2 0xC51 PUSH2 0x90C JUMP JUMPDEST SWAP1 POP PUSH1 0x9 SLOAD DUP2 GT ISZERO PUSH2 0xC62 JUMPI POP PUSH1 0x9 SLOAD JUMPDEST PUSH1 0x0 PUSH1 0x9 SLOAD PUSH1 0x7 SLOAD DUP2 PUSH2 0xC71 JUMPI INVALID JUMPDEST DIV SWAP1 POP PUSH1 0x0 DUP3 DUP3 MUL SWAP1 POP PUSH1 0x1 PUSH1 0x0 DUP2 SLOAD DUP2 LT PUSH2 0xC89 JUMPI INVALID JUMPDEST PUSH1 0x0 SWAP2 DUP3 MSTORE PUSH1 0x20 SWAP1 SWAP2 KECCAK256 ADD SLOAD PUSH1 0x1 PUSH1 0x1 PUSH1 0xA0 SHL SUB DUP7 DUP2 AND SWAP2 AND EQ ISZERO PUSH2 0xCEE JUMPI PUSH1 0x0 DUP2 PUSH1 0x0 DUP1 PUSH1 0x1 PUSH1 0x0 DUP2 SLOAD DUP2 LT PUSH2 0xCBC JUMPI INVALID JUMPDEST PUSH1 0x0 SWAP2 DUP3 MSTORE PUSH1 0x20 DUP1 DUP4 KECCAK256 SWAP1 SWAP2 ADD SLOAD PUSH1 0x1 PUSH1 0x1 PUSH1 0xA0 SHL SUB AND DUP4 MSTORE DUP3 ADD SWAP3 SWAP1 SWAP3 MSTORE PUSH1 0x40 ADD SWAP1 KECCAK256 SLOAD ADD SWAP5 POP PUSH2 0xDAB SWAP4 POP POP POP POP JUMP JUMPDEST PUSH1 0x2 PUSH1 0x0 DUP2 SLOAD DUP2 LT PUSH2 0xCFC JUMPI INVALID JUMPDEST PUSH1 0x0 SWAP2 DUP3 MSTORE PUSH1 0x20 SWAP1 SWAP2 KECCAK256 ADD SLOAD PUSH1 0x1 PUSH1 0x1 PUSH1 0xA0 SHL SUB DUP7 DUP2 AND SWAP2 AND EQ ISZERO PUSH2 0xDA7 JUMPI PUSH1 0x0 DUP1 PUSH1 0x2 PUSH1 0x0 DUP2 SLOAD DUP2 LT PUSH2 0xD2C JUMPI INVALID JUMPDEST PUSH1 0x0 SWAP2 DUP3 MSTORE PUSH1 0x20 DUP1 DUP4 KECCAK256 SWAP1 SWAP2 ADD SLOAD PUSH1 0x1 PUSH1 0x1 PUSH1 0xA0 SHL SUB AND DUP4 MSTORE DUP3 ADD SWAP3 SWAP1 SWAP3 MSTORE PUSH1 0x40 ADD SWAP1 KECCAK256 SLOAD PUSH2 0xD61 JUMPI PUSH1 0x0 SWAP4 POP POP POP POP PUSH2 0xDAB JUMP JUMPDEST PUSH1 0x0 DUP2 PUSH1 0x0 DUP1 PUSH1 0x2 PUSH1 0x0 DUP2 SLOAD DUP2 LT PUSH2 0xD75 JUMPI INVALID JUMPDEST PUSH1 0x0 SWAP2 DUP3 MSTORE PUSH1 0x20 DUP1 DUP4 KECCAK256 SWAP1 SWAP2 ADD SLOAD PUSH1 0x1 PUSH1 0x1 PUSH1 0xA0 SHL SUB AND DUP4 MSTORE DUP3 ADD SWAP3 SWAP1 SWAP3 MSTORE PUSH1 0x40 ADD SWAP1 KECCAK256 SLOAD SUB SWAP5 POP PUSH2 0xDAB SWAP4 POP POP POP POP JUMP JUMPDEST POP POP POP JUMPDEST SWAP2 SWAP1 POP JUMP INVALID 0x4E PUSH6 0x656420746F20 PUSH5 0x65706F7369 PUSH21 0x20746865207265717569726564204D617267696E21 LOG2 PUSH5 0x6970667358 0x22 SLT KECCAK256 CODESIZE 0xBB 0x27 PUSH27 0x7006ECDDA9A0E0DA113459ADFB58F1545B2E11B345172CC79C82D1 MLOAD PUSH5 0x736F6C6343 STOP MOD 0xC STOP CALLER ",
  "sha1": "3433401f6380dcb2e21b7d30171b6458f9a1aea0",
  "source": "// SPDX-License-Identifier: MIT\npragma solidity ^0.6.0;\n\n\n\n\ncontract LeaseMargins{\n\n    // Maps value of funds an address has sent\n    mapping(address => uint256) public addressToAmountFunded;\n\n    // Lists of Lendor and Lessee Adresses\n    address[]  lendorAddress;\n    address[]  lesseeAddress;\n    \n    // True when margin has been funded\n    bool lendorMarginOk = false;\n    bool lesseeMarginOk = false;\n\n    // Contract voided when either are true (Margin Forfeited by voiding party)\n    bool lendorVoid = false;\n    bool lesseeVoid = false;\n    \n    // Global variable for start time of contract\n    uint chainStartTime = 0;\n\n\n\n    //============Default Variables============\n    //***NEEDS to instantiate custom values\n\n    //Lender margin requirements\n    //min hardcoded 20 USD (0.0075 ETH) (7500000000000000 wei)\n    uint minimumMarginLendor = 7500000000000000;\n\n    //Lessee margin requirements\n    //min hardcoded 20 USD (0.0075 ETH) (7500000000000000 wei)\n    uint minimumMarginLessee = 7500000000000000;\n    \n    //Lesse total rent 200 USD (0.075 ETH) (75000000000000000 wei)\n    uint rentFee = 75000000000000000;\n\n    //Total cost to Lessee to enter the contract (hardcoded at 220 USD)\n    //  = 82500000000000000\n    uint totalCostLessee = rentFee + minimumMarginLessee;\n\n    //Days for contract to ideally last\n    uint maxDaysContract = 120;\n\n    //\"Harvest Date\" for a binary determinent of who gets to keep margin\n    //If before harvest date => both loose margin during a void, after harvest it goes to other party\n    // ***NEEDS to be replaced with a function that varies over t, time remaining in contract\n    // If before harvest date:\n    //      If Lendor voids => Both lose your margin\n    //      If Lessee voids => Both lose your margin\n    // If after harvest date, Less\n    //      if Lendor voids => Lendor Margin goes to Lessee\n    //      if Lessee voids => Lessee Margin goes to Lendor\n    uint harvestDay = 90;\n\n    /*\n    // ============Returns Days elapsed since contract elapsed============\n    // Returns 0 if contract is void\n    function getDaysInContract() private view returns(uint){\n        if (lendorMarginOk && lendorMarginOk){\n            return (block.timestamp - chainStartTime )/ 86400;\n        }  \n        else{\n            return 0;\n        }\n    }\n    */\n\n\n    // TEST FUNCTION TO BE DELETED LATER\n    // Set current day for testing \n    // Show's state on contract at any one day\n    uint public testingDays = 0;\n    function getDaysInContract() public view returns(uint){return testingDays;}\n\n\n    \n    // ===========Override Contract Defaults===========\n    // ... =========Set Contract Defaults==============\n    // Setting contract details \n    // Function setAttributes\n    // ***NEEDS BOOL to stop editting during time (helpful for testing as is )\n    function setAttributes(uint _minimumMarginLendor, uint _minimumMarginLessee, uint _rentFee, uint _maxDaysContract, uint _harvestDay, uint _testingDays) public returns(address){\n        minimumMarginLendor = _minimumMarginLendor;\n        minimumMarginLessee = _minimumMarginLessee;\n        rentFee =  _rentFee;\n        totalCostLessee = rentFee + minimumMarginLessee;\n        maxDaysContract = _maxDaysContract;\n        harvestDay = _harvestDay;\n        testingDays = _testingDays;\n\n        //show address you are currently modifying\n        return  address(this);\n    }\n\n    \n\n    // ============Margin posting for Lendor============\n    // ***NEEDS Return confirmation value\n    // ***NEEDS Verify These are funds from Lendor\n    function lendorMargin() public payable{\n\n        //min hardcoded 20 USD by constructor\n        uint minimumMargin = minimumMarginLendor;\n\n        //denies transaction if margin not met\n        require(msg.value == minimumMargin, \"Need to deposit the required Margin!\");\n        addressToAmountFunded[msg.sender] += msg.value;\n\n        //add Lendor to list for address reference\n        lendorAddress.push(msg.sender);\n\n        //logic to set start Date if both Margins are retained\n        if (msg.value >= minimumMargin) {\n            lendorMarginOk = true;\n            if (lesseeMarginOk = true){\n                chainStartTime = block.timestamp;\n            }\n        }\n      \n    }\n\n\n\n    // ============Posting of Margin and entire rent by Lessee============\n    // ***NEEDS Return confirmation value\n    // ***NEEDS Verify These are funds from Lessee\n    function leseeMarginRent() public payable{\n\n        //min hardcoded 220 USD \n        uint minimumMargin = totalCostLessee ;\n\n        //Denies transaction if margin not met\n        require(msg.value == minimumMargin, \"Need to deposit the required Margin!\");\n       addressToAmountFunded[msg.sender] += msg.value;\n\n        //add Lendor to list for address reference\n        lesseeAddress.push(msg.sender);\n\n        if (msg.value >= minimumMargin) {\n            lesseeMarginOk = true;\n            if (lendorMarginOk = true){\n                chainStartTime = block.timestamp;\n            }\n        }\n    }\n\n    \n\n    // ============Returns Unix timestamp of contract startdate============\n    // Use for calculating payoff to lendor if contract is voided\n    // Returns 0 if contract hasn't been initiated\n    function getInitStateDate() public view returns(uint){\n        if (lendorMarginOk && lendorMarginOk){\n            return chainStartTime;\n        }  \n        else{\n            return 0;\n        }\n    }\n\n\n\n    // ============Decorates a function to only have Lendor access Permissions============\n    modifier onlyLendor{\n        require(msg.sender == lendorAddress[0]);\n        _;\n    }\n\n    // ============Decorates a function to only have Lessee access Permissions============\n    modifier onlyLessee{\n        require(msg.sender == lesseeAddress[0]);\n        _;\n    }\n\n    // ============Decorates a function to only run if contract is valid(signed with both margins)============\n    modifier contractValid{\n        require(lendorMarginOk && lendorMarginOk);\n        _;\n    }\n\n\n\n    // ============Get Current Balances============\n    // Given current day computed by getDaysInContract()\n    // This function Adjusts theoretical value of each account given all payments that would have occured\n    // This is like Daily Settlement, without actually transferring the funds\n    // This is to save on the feeds incurred if it were processed each day\n    // *Can call this function on either address\n    function getBalance(address either)public view returns(uint) {\n        //only can get balances of valid relevant addresses\n        require (either == lendorAddress[0] || either == lesseeAddress[0]);\n\n        //get how many days contract has been elapsed for \n        //Checks that days to get paid for doesn't exceed the contract max\n        uint d = getDaysInContract();\n        if ( d > maxDaysContract){\n            d = maxDaysContract;\n        }\n\n        uint pricePerDay = rentFee /maxDaysContract;\n        uint accumFunds = pricePerDay * d;\n        \n        if (either == lendorAddress[0]){\n            uint resultBalance = addressToAmountFunded[lendorAddress[0]] + accumFunds;\n            return resultBalance;\n        }\n\n        if (either == lesseeAddress[0]){\n            if (addressToAmountFunded[lesseeAddress[0]] ==0){return 0;}\n            uint resultBalance = addressToAmountFunded[lesseeAddress[0]] - accumFunds;\n            return resultBalance;\n        }\n\n    }\n\n\n   \n    // ============Allow Lendor to see how much he could cashout for currently============\n    // Calls the getBalance function that adjusts for daily payments\n    // Adjusts these balances for the harvest date adjustments which relates to retain margin or not\n    function viewCashoutLendor() public view returns(uint){\n        \n        //Before Harvest Date \n        if (getDaysInContract()<harvestDay){\n            if (getBalance(lendorAddress[0])== 0){return 0;}\n            uint penalty = getBalance(lendorAddress[0]) - minimumMarginLendor;\n            return penalty;\n        }\n        \n\n        //After Harvest Date\n        return getBalance(lendorAddress[0]);\n\n    }\n\n\n\n    // ============Show the Lessee how much margin he has left posted (diminishes by day)============\n    function viewMarginRemainsLessee() public view returns(uint){\n        \n        //Before Harvest Date \n        if (getDaysInContract()<harvestDay){\n            uint penalty = getBalance(lesseeAddress[0]) - minimumMarginLessee;\n            return penalty;\n        }\n\n        //After Harvest Date\n        return getBalance(lesseeAddress[0]);\n    }\n\n   \n\n    // ============End Contract Lendor Void============\n    function voidingLendor() onlyLendor contractValid payable public{\n        \n        \n        //Update Lendor balance to transfer\n        //Lendor loses margin in void they initiate\n        msg.sender.transfer(viewCashoutLendor()-minimumMarginLessee);\n        addressToAmountFunded[msg.sender] -= viewCashoutLendor();   // Best practice this should be above?\n\n        //Making Lessor's address Payable to access .transfer\n        address payable lesseePayable = payable(lesseeAddress[0]);\n  \n        //Update Lessee balance to transfer\n        //Lessee gets the Lendors margin if time is greater than harvest date\n        if (getDaysInContract() > harvestDay){\n            addressToAmountFunded[lesseeAddress[0]] -= viewMarginRemainsLessee();\n            lesseePayable.transfer(viewMarginRemainsLessee() + minimumMarginLessee);\n        }\n        else{\n            lesseePayable.transfer(viewMarginRemainsLessee());\n        }\n\n        //Documenting that Lendor voided contract\n        lendorVoid = true;\n\n    }\n\n\n\n    // ============Lendor Cashout============\n    // At any time or after contract has completed\n    function cashoutLendor(uint withdrawAmount) onlyLendor contractValid payable public{\n        \n        // If contract completes without a void, allow full withdrawl of acculated funds and OG margin posted\n        // Also gives back margin to Lessee that they had posted\n        if (getDaysInContract() >= maxDaysContract){\n            msg.sender.transfer(addressToAmountFunded[lendorAddress[0]]+ minimumMarginLendor);\n            addressToAmountFunded[lendorAddress[0]] = 0;\n            \n            //Making Lessor's address Payable to access .transfer\n            //Sending them their margin back\n            address payable lesseePayable = payable(lesseeAddress[0]);\n            lesseePayable.transfer(minimumMarginLessee);\n            addressToAmountFunded[lesseeAddress[0]] = 0;\n\n            // Makes contract null after completion\n            lendorMarginOk = false;\n            lesseeMarginOk = false;\n            return;\n        }\n\n        // For the time between harvest day and end of contract\n        if (harvestDay <= getDaysInContract() && getDaysInContract() < maxDaysContract){\n            //check to make sure they don't take more than they have put in \n            require (withdrawAmount <= viewCashoutLendor()- minimumMarginLessee);\n\n            //Update Lendor balance to transfer\n            //They will be able to call this multiple times through contract\n            addressToAmountFunded[msg.sender] -= withdrawAmount;\n            msg.sender.transfer(withdrawAmount);\n            return;\n\n        }\n        if (getDaysInContract() < harvestDay){\n\n            //check to make sure they don't take more than they have put in \n            require (withdrawAmount <= viewCashoutLendor());\n\n            //Update Lendor balance to transfer\n            //They will be able to call this multiple times through contract\n            addressToAmountFunded[msg.sender] -= withdrawAmount;\n            msg.sender.transfer(withdrawAmount);\n            return;\n        }\n\n    }\n\n\n\n    // ============End Contract Lessee Void============\n    function voidingLessee() onlyLessee contractValid payable public{\n        \n        //Update Lessee balance to transfer\n        //Lessee loses margin in void they initiate\n        msg.sender.transfer(viewMarginRemainsLessee()-minimumMarginLessee);\n        addressToAmountFunded[msg.sender] =0;   // best practice to be above?\n\n        //Making Lendor's address Payable to access .transfer\n        address payable lendorPayable = payable(lendorAddress[0]);\n  \n        //Update Lendor balance to transfer\n        //Lendor gets the Lessees margin if time is greater than harvest date\n        if (getDaysInContract() > harvestDay){\n            lendorPayable.transfer(viewCashoutLendor() + minimumMarginLendor);\n            addressToAmountFunded[lendorAddress[0]] -= viewCashoutLendor(); // best practice to be above?\n        }\n        //Lendor gets rent paid out \n        else{\n            lendorPayable.transfer(viewCashoutLendor());\n        }\n\n        //Documenting that Lessee voided contract\n        lesseeVoid = true;\n\n    }\n\n\n\n    // ============Lendor Cashout Completed Contract============\n    // Release both margin and all accumulated rent money to the Lendor\n    function cashoutLessee() onlyLessee contractValid payable public{\n        require (getDaysInContract() >= maxDaysContract);\n\n        //Margin back to Lessee\n        msg.sender.transfer(minimumMarginLessee);\n\n        //Making Lendor's address Payable to access .transfer\n        address payable lendorPayable = payable(lendorAddress[0]);\n        lendorPayable.transfer(viewCashoutLendor());\n        \n        // Nullify contract\n        lendorMarginOk = false;\n        lesseeMarginOk = false;\n\n    }\n\n\n\n    // ***NEEDS WORK    \n    // Function to be called when leftover margin ETH during a pre-Harvest Date void\n    // Find Charity to senc it to ? See \"the giving block\" for interesting or default to red cross\n\n\n    \n\n\n}",
  "sourcePath": "contracts/margin.sol",
  "type": "contract"
}